:100000000C942A000C9485000C943C000C943C0049
:100010000C943C000C943C000C943C000C943C0070
:100020000C943C000C943C000C943C000C943C0060
:100030000C943C000C943C000C943C000C943C0050
:100040000C943C000C943C000C943C000C943C0040
:100050000C943C0011241FBECFE5D8E0DEBFCDBF1D
:1000600020E0A0E6B0E001C01D92A536B207E1F79E
:100070000E94D3000C9447050C94000013BE99B75E
:100080009C7F99BF93B7492B642B862B83BF89B77D
:10009000282B29BF08954834B9F5203201F12033C7
:1000A00099F59B01AC0160E070E088EC92E40E945D
:1000B000E70220E030E048EC52E40E94540320E0E4
:1000C00030E04FE753E40E94830420E030E040E05A
:1000D0005FE30E94E8020E94C6036CBF089520E01F
:1000E00030E048EC52E40E94540320E030E04FE757
:1000F00053E40E94830420E030E040E05FE30E948C
:10010000E8020E94C6036CBF08951F920F920FB6BB
:100110000F9211248F939F93AF93BF9380916000B0
:10012000813089F41EBC8CB59DB5A0E0B0E0809311
:10013000610090936200A0936300B09364001DBCC3
:100140001CBC1092600080916000811106C08EB5C9
:1001500081608EBD81E080936000BF91AF919F91DF
:100160008F910F900FBE0F901F901895682F70E021
:1001700080E090E00E94F70320E030E044E353E4A5
:100180000E94540320E030E048E451E40E948304DC
:1001900020E030E040EA5FE30E94E80220E248E429
:1001A0000E944B00089510E8E12E15E2F12E00E0C8
:1001B00010E024E040E060E08AE10E949B0220E041
:1001C00040E268E483E00E943E0023E040E066E312
:1001D00070E087E390E00E94780287EA91E6019759
:1001E000F1F700C000008FE087BB0E94E4018CE0C3
:1001F0000E94A1018BE081BB83ED90E30197F1F7B1
:1002000000C000008BB780648BBF85B7816085BF5D
:1002100078940F2EFAE38F2E912CA12CB12CF02D77
:100220000F2EFFE0CF2ED12CE12CF12CF02D83ED01
:1002300090E30197F1F700C00000939A95E09A953A
:10024000F1F7939860916100709162008091630072
:1002500090916400A50194010E94F00429013A01E3
:100260008C2D0E94B6000E946802C701B6010E9450
:10027000490260E081E00E946C02B201550C880BDB
:10028000990B0E94490288EC0E94E3028C2D0E9487
:10029000E302842D0E94E3028FEFC81AD80AE80A0D
:1002A000F80A96EAC916D104E104F10409F0BFCFB7
:1002B0000F2EF5EACF2ED12CE12CF12CF02D83ED71
:1002C00090E30197F1F700C00000939A95E09A95AA
:1002D000F1F79398609161007091620080916300E2
:1002E00090916400A50194010E94F00429013A0153
:1002F0008C2D0E94B6000E946802C701B6010E94C0
:10030000490260E081E00E946C02B201550C880B4A
:10031000990B0E94490288EC0E94E3028C2D0E94F6
:10032000E302842D0E94E30281E0C81AD108E108AB
:10033000F1089FE0C916D104E104F10409F0BFCF30
:100340006FCFD898D998E9EFF0E03197F1F700C076
:100350000000DA9AE9EFF0E03197F1F700C0000011
:100360009BB39F709BBB9BB3282F207F922B9BBB83
:10037000E9EFF0E03197F1F700C00000DA98E9EF1B
:10038000F0E03197F1F700C00000DA9AE9EFF0E011
:100390003197F1F700C000009BB39F709BBB2BB35C
:1003A000F0E18F9FC0011124822B8BBB89EF90E07D
:1003B0000197F1F700C00000DA98E9EFF0E031971B
:1003C000F1F700C0000008958AB387608ABB8AB342
:1003D000806F8ABB83E30E94A10182E30E94A10196
:1003E00088E20E94A10182E00E94A10181E00E94B6
:1003F000A1018EE00E94A1010895D89AD998DA9AB5
:10040000E9EFF0E03197F1F700C000009BB39F7077
:100410009BBB9BB3282F207F922B9BBBE9EFF0E087
:100420003197F1F700C00000DA98E9EFF0E031977A
:10043000F1F700C00000DA9A9BB39F709BBB2BB30F
:10044000F0E18F9FC0011124822B8BBB89EF90E0DC
:100450000197F1F700C00000E9EFF0E03197F1F704
:1004600000C00000DA9889EF90E00197F1F700C032
:1004700000000895CF93DF93EC018881882331F049
:1004800021960E94FD0189918111FBCFDF91CF91CF
:100490000895CF93DF93CDB7DEB760970FB6F8948A
:1004A000DEBF0FBECDBFDC01CB014AE0BE016F5FF6
:1004B0007F4F0E941205CE0101960E943A0260967B
:1004C0000FB6F894DEBF0FBECDBFDF91CF91089578
:1004D00081E00E94A1010895882329F0813011F460
:1004E000606401C060E0862F80680E94A1010895C9
:1004F000CF93DF93EC01DB018881E1E0F0E0022E95
:1005000002C0EE0FFF1F0A94E2F79E2F90958923F9
:1005100088838881E82BE8838C9198239C938C9125
:1005200050E002C0440F551F2A95E2F7482B4C9328
:10053000DF91CF910895EF92FF920F931F931BB815
:100540001AB810BC3BB1582F5270352B3BB93AB199
:10055000962F907E932B382F3871932B9AB990B5A4
:10056000322F3670932B4873492B982F9174492B57
:1005700040BD263009F4529A823121F08A3111F0BF
:100580008A30E1F4C801B7010E94F50320E030E0B1
:1005900040E051E40E9483049B01AC0160E074E2FE
:1005A00084E799E40E94540320E030E040E85FE3F0
:1005B0000E94E7020E94C60310BC69B91F910F9107
:1005C000FF90EF9008955D9BFECF8CB90895505831
:1005D000BB27AA270E94FF020C9449040E943B04F7
:1005E00038F00E94420420F039F49F3F19F426F4B9
:1005F0000C9438040EF4E095E7FB0C943204E92FD8
:100600000E945A0458F3BA176207730784079507C4
:1006100020F079F4A6F50C947C040EF4E0950B2EF2
:10062000BA2FA02D0B01B90190010C01CA01A00144
:100630001124FF27591B99F0593F50F4503E68F19F
:100640001A16F040A22F232F342F4427585FF3CFE0
:10065000469537952795A795F0405395C9F77EF4B1
:100660001F16BA0B620B730B840BBAF09150A1F0FA
:10067000FF0FBB1F661F771F881FC2F70EC0BA0F80
:10068000621F731F841F48F4879577956795B79508
:10069000F7959E3F08F0B0CF9395880F08F0992703
:1006A000EE0F9795879508950E9468030C9449046E
:1006B0000E94420458F00E943B0440F029F45F3F3E
:1006C00029F00C94320451110C947D040C943804DC
:1006D0000E945A0468F39923B1F3552391F3951BB3
:1006E000550BBB27AA2762177307840738F09F5F53
:1006F0005F4F220F331F441FAA1FA9F335D00E2EC0
:100700003AF0E0E832D091505040E695001CCAF72C
:100710002BD0FE2F29D0660F771F881FBB1F2617EF
:1007200037074807AB07B0E809F0BB0B802DBF01C6
:10073000FF2793585F4F3AF09E3F510578F00C9495
:1007400032040C947D045F3FE4F3983ED4F3869525
:1007500077956795B795F7959F5FC9F7880F911DB6
:100760009695879597F90895E1E0660F771F881FA2
:10077000BB1F621773078407BA0720F0621B730B55
:10078000840BBA0BEE1F88F7E09508950E9462046F
:1007900088F09F5798F0B92F9927B751B0F0E1F042
:1007A000660F771F881F991F1AF0BA95C9F714C0F2
:1007B000B13091F00E947C04B1E008950C947C0467
:1007C000672F782F8827B85F39F0B93FCCF386952B
:1007D00077956795B395D9F73EF490958095709588
:1007E00061957F4F8F4F9F4F0895E89409C097FB05
:1007F0003EF490958095709561957F4F8F4F9F4FF8
:100800009923A9F0F92F96E9BB279395F69587953B
:1008100077956795B795F111F8CFFAF4BB0F11F4FE
:1008200060FF1BC06F5F7F4F8F4F9F4F16C08823A5
:1008300011F096E911C0772321F09EE8872F762FDB
:1008400005C0662371F096E8862F70E060E02AF01C
:100850009A95660F771F881FDAF7880F9695879508
:1008600097F9089597F99F6780E870E060E0089530
:100870009FEF80EC089500240A94161617061806B8
:100880000906089500240A94121613061406050694
:100890000895092E0394000C11F4882352F0BB0F25
:1008A00040F4BF2B11F460FF04C06F5F7F4F8F4F88
:1008B0009F4F089557FD9058440F551F59F05F3FC3
:1008C00071F04795880F97FB991F61F09F3F79F072
:1008D00087950895121613061406551FF2CF4695F4
:1008E000F1DF08C0161617061806991FF1CF869576
:1008F0007105610508940895E894BB27662777275A
:10090000CB0197F908950E9496040C9449040E9423
:100910003B0438F00E94420420F0952311F00C941F
:1009200032040C94380411240C947D040E945A045F
:1009300070F3959FC1F3950F50E0551F629FF00132
:10094000729FBB27F00DB11D639FAA27F00DB11D4B
:10095000AA1F649F6627B00DA11D661F829F2227D4
:10096000B00DA11D621F739FB00DA11D621F839F5B
:10097000A00D611D221F749F3327A00D611D231F31
:10098000849F600D211D822F762F6A2F11249F577F
:1009900050409AF0F1F088234AF0EE0FFF1FBB1F82
:1009A000661F771F881F91505040A9F79E3F510541
:1009B00080F00C9432040C947D045F3FE4F3983E85
:1009C000D4F3869577956795B795F795E7959F5FEB
:1009D000C1F7FE2B880F911D9695879597F908957D
:1009E000A1E21A2EAA1BBB1BFD010DC0AA1FBB1F33
:1009F000EE1FFF1FA217B307E407F50720F0A21BA5
:100A0000B30BE40BF50B661F771F881F991F1A9411
:100A100069F760957095809590959B01AC01BD013B
:100A2000CF010895BB274A3031F4992322F4BDE267
:100A3000909581959F4F0C941E05BB27FB01552770
:100A4000AA27880F991FAA1FA41710F0A41B83952B
:100A50005051B9F7A05DAA3308F0A95DA1930097A2
:100A600079F7B111B1931192CB010C943705DC01E8
:100A7000FC01672F71917723E1F7329704C07C91D5
:100A80006D9370836291AE17BF07C8F30895F89411
:020A9000FFCF96
:00000001FF
